:020000020000fc
:0100000000ff
:0100010003fb
:0100020002fb
:0100030002fa
:0100040002f9
:0100050003f7
:0100060002f7
:0100070001f7
:0100080002f5
:0100090000f6
:01000a0000f5
:01000b0003f1
:01000c0002f1
:01000d0003ef
:01000e0001f0
:01000f0000f0
:0100100002ed
:0100110001ed
:0100120001ec
:0100130003e9
:0100140003e8
:0100150003e7
:0100160001e8
:0100170000e8
:0100180001e6
:0100190002e4
:01001a0000e5
:01001b0000e4
:01001c0000e3
:01001d0001e1
:01001e0002df
:01001f0001df
:0100200001de
:0100210000de
:0100220002db
:0100230000dc
:0100240003d8
:0100250002d8
:0100260003d6
:0100270000d8
:0100280001d6
:0100290002d4
:01002a0003d2
:01002b0001d3
:01002c0003d0
:01002d0000d2
:01002e0002cf
:01002f0003cd
:0100300001ce
:0100310001cd
:0100320001cc
:0100330000cc
:0100340002c9
:0100350001c9
:0100360000c9
:0100370000c8
:0100380000c7
:0100390002c4
:01003a0002c3
:01003b0001c3
:01003c0001c2
:01003d0003bf
:01003e0000c1
:01003f0001bf
:0100400002bd
:0100410002bc
:0100420000bd
:0100430001bb
:0100440000bb
:0100450000ba
:0100460001b8
:0100470000b8
:0100480001b6
:0100490003b3
:01004a0000b5
:01004b0003b1
:01004c0001b2
:01004d0001b1
:01004e0001b0
:01004f0000b0
:0100500001ae
:0100510000ae
:0100520003aa
:0100530003a9
:0100540000ab
:0100550002a8
:0100560000a9
:0100570001a7
:0100580001a6
:0100590003a3
:01005a0001a4
:01005b0002a2
:01005c0001a2
:01005d0002a0
:01005e00039e
:01005f0000a0
:01006000009f
:01006100029c
:01006200009d
:01006300009c
:01006400009b
:010065000298
:010066000396
:010067000098
:010068000196
:010069000195
:01006a000392
:01006b000391
:01006c000390
:01006d000191
:01006e00028f
:01006f00028e
:01007000038c
:01007100038b
:01007200038a
:010073000389
:010074000388
:01007500008a
:010076000089
:010077000187
:010078000087
:010079000185
:01007a000085
:01007b000084
:01007c000182
:01007d000082
:01007e00037e
:01007f00027e
:01008000007f
:01008100027c
:01008200017c
:010083000379
:01008400017a
:010085000278
:010086000079
:010087000177
:010088000275
:010089000274
:01008a000273
:01008b000074
:01008c000370
:01008d000171
:01008e000170
:01008f000070
:01009000016e
:01009100016d
:01009200026b
:01009300016b
:010094000269
:01009500006a
:010096000366
:010097000167
:010098000364
:010099000264
:01009a000065
:01009b000361
:01009c000261
:01009d000161
:01009e000061
:01009f00035d
:0100a000015e
:0100a100015d
:0100a200015c
:0100a300005c
:0100a400015a
:0100a5000357
:0100a6000158
:0100a7000355
:0100a8000057
:0100a9000353
:0100aa000154
:0100ab000153
:0100ac000053
:0100ad000052
:0100ae000150
:0100af000050
:0100b000014e
:0100b100014d
:0100b200004d
:0100b300024a
:0100b4000348
:0100b5000149
:0100b6000049
:0100b7000345
:0100b8000344
:0100b9000046
:0100ba000342
:0100bb000143
:0100bc000340
:0100bd00033f
:0100be000041
:0100bf000040
:0100c000013e
:0100c100033b
:0100c200013c
:0100c300023a
:0100c400003b
:0100c5000139
:0100c6000039
:0100c7000038
:0100c8000334
:0100c9000234
:0100ca000035
:0100cb000034
:0100cc000132
:0100cd000230
:0100ce000130
:0100cf00032d
:0100d000022d
:0100d100022c
:0100d200022b
:0100d300022a
:0100d400012a
:0100d5000327
:0100d6000029
:0100d7000127
:0100d8000027
:0100d9000125
:0100da000223
:0100db000222
:0100dc000320
:0100dd000220
:0100de00021f
:0100df00011f
:0100e000031c
:0100e100031b
:0100e200011c
:0100e300011b
:0100e4000219
:0100e5000218
:0100e6000316
:0100e7000018
:0100e8000314
:0100e9000115
:0100ea000312
:0100eb000014
:0100ec000310
:0100ed000111
:0100ee00030e
:0100ef00010f
:0100f000000f
:0100f100030b
:0100f200030a
:0100f300000c
:0100f4000209
:0100f5000208
:0100f6000009
:0100f7000008
:0100f8000304
:0100f9000303
:0100fa000203
:0100fb000004
:0100fc000102
:0100fd000200
:0100fe0002ff
:0100ff0003fd
:00000001FF
