:020000040000FA
:1000000000F603201D2E0000312E0000332E0000CC
:10001000352E0000372E0000392E000000000000B1
:100020000000000000000000000000003B2E000067
:100030003D2E0000000000003F2E0000BB09000024
:10004000432E0000432E0000432E0000432E0000EC
:10005000432E0000432E0000432E0000432E0000DC
:10006000432E0000432E0000432E0000432E0000CC
:10007000432E0000432E0000432E0000432E0000BC
:10008000432E0000432E0000432E0000432E0000AC
:10009000432E0000432E0000432E0000432E00009C
:1000A000432E0000432E00008B2D0000432E000045
:1000B000432E0000432E0000432E0000432E00007C
:1000C000432E0000432E0000432E0000432E00006C
:1000D000432E0000432E0000432E0000432E00005C
:1000E000432E0000432E0000432E0000432E00004C
:1000F000432E0000432E0000432E0000432E00003C
:10010000432E0000432E0000432E0000432E00002B
:10011000432E0000432E0000432E0000432E00001B
:10012000432E0000432E0000432E0000432E00000B
:100130009F1100002D120000432E0000432E0000EE
:10014000432E0000432E0000432E0000432E0000EB
:10015000432E0000432E0000432E0000432E0000DB
:10016000432E0000432E0000432E0000432E0000CB
:100170006F1A0000432E0000432E0000432E0000A3
:10018000432E0000432E0000432E0000432E0000AB
:10019000432E0000432E0000432E0000432E00009B
:1001A000432E0000432E0000432E0000432E00008B
:1001B000432E0000432E0000432E0000432E00007B
:1001C000432E0000432E0000432E0000432E00006B
:1001D000432E0000432E0000432E0000432E00005B
:1001E000432E0000432E0000432E0000432E00004B
:1001F000432E0000432E0000432E0000432E00003B
:10020000432E0000432E0000432E0000432E00002A
:10021000432E0000432E0000432E0000432E00001A
:10022000432E0000432E0000432E0000432E00000A
:10023000432E0000432E0000432E0000432E0000FA
:10024000DFF80CD003F0A2FF00480047F7050000DC
:1002500000F603203D483E490860C0430860002086
:100260003C4908723C48006840F470003A49086014
:1002700001208107486100BF4FF08040406900F0D5
:1002800002000228F8D101203449087400200875C2
:10029000802008768120087783203049203108703B
:1002A00000202E4981F828005C2081F830000846A3
:1002B000007840F00200087000BF2848007900F084
:1002C00002000028F9D000202449343108700320AE
:1002D000224981F83800132081F83C000846007854
:1002E00040F01000087000BF1C48007900F01000BA
:1002F0000028F9D01948007840F0400017490870EC
:1003000000BF1648007800F0E00015490870134857
:10031000007900F0E00009788842F2D111480068C5
:10032000C0F3090040F2FF3188420ED00748C01CDC
:100330000D49C8600B480068000C08724FF08040FF
:10034000D0F8000188800020C860704751E5CC1AC1
:10035000001C01400010014088ED00E00000014059
:1003600004E003200001004000E0024008B5302016
:1003700000BF00218DF802108DF8011001218DF8C9
:10038000021000BF9DF80210FC4A11600021FC4AD7
:100390001160FC4A116000BF00BF00BF8DF8021061
:1003A0008DF8011001218DF8021000BF9DF8021098
:1003B000F54A11600021F54A1160F54A116000BF4D
:1003C00000BF00BF8DF802108DF8011001218DF8DB
:1003D000021000BF9DF80210EE4A11600021EB4AA6
:1003E000C2F80C11EC4A1160EC4A516100BF00BF29
:1003F000009102E00099491C00914FF6FF720099AC
:100400009142F7DBE649096809B1652034E0E54926
:10041000096809B167202FE000BF00218DF80210A4
:100420008DF801108DF8011000BF9DF80110DE4A13
:1004300011600121D54AC2F894120021DB4A1160F3
:1004400000BF00BF00BF8DF802108DF801108DF8BD
:10045000021000BF9DF80210D54A11600021CB4A5E
:10046000C2F89412D14A116000BF00BFD149096897
:1004700009B1682000E06620652806D0662805D00E
:10048000672844D068287DD183E000BF00BF0021E9
:100490008DF802108DF801108DF8011000BF9DF845
:1004A0000110C54A11600121B84A11600021B84A03
:1004B000116000BF00BF00BF8DF802108DF8011061
:1004C0008DF8011000BF9DF80110BC4A1160012198
:1004D000AE4AC2F80C110021AF4A1160AF4A516117
:1004E00000BF00BF00BF8DF802108DF801108DF81D
:1004F000011000BF9DF80110B14A11600121A04A0E
:10050000116000219F4A116000BF00BF71E000BF71
:1005100000218DF802108DF801108DF8011000BF38
:100520009DF80110A44A11600121984A1160002130
:10053000974A116000BF00BF00BF8DF802108DF810
:1005400001108DF8021000BF9DF80210914A116051
:1005500000218E4AC2F80C118F4A11608F4A5161F6
:1005600000BF00BF00BF8DF802108DF801108DF89C
:10057000011000BF9DF80110914A11600121804ACD
:10058000116000E034E000217E4A116000BF00BF2E
:100590002FE000BF00218DF802108DF801108DF8BA
:1005A000021000BF9DF80210774A11600021774ABF
:1005B0001160774A116000BF00BF00BF0121774A78
:1005C000516100BF00BF00218DF802108DF80110AD
:1005D0008DF8011000BF9DF80110794A11600121CA
:1005E000674A11600021674A116000BF00BF00E048
:1005F00000BF00BF08BD1CB5F821724803F018FA0F
:100600004821714803F014FA00F02AFC00F074FE4F
:100610006E488089102801D1012100E0002169483D
:10062000C06D61F386106749C86569488861886252
:1006300001F10C00011F0B1F1A1FCDE9001065A16D
:10064000674803F001FA5F48406E20F00100401C4B
:100650005C4948665E48C1F880008864C864002030
:100660000866262002F0E2FE272002F0DFFE0220CC
:1006700002F0DCFE172002F0D9FE182002F0D6FEB0
:10068000192002F0D3FE1A2002F0D0FE212002F041
:10069000CDFE222002F0CAFE232002F0C7FE242055
:1006A00002F0C4FE252002F0C1FE082002F0BEFECA
:1006B0000B2002F0BBFE0C2002F0B8FE0D2002F071
:1006C000B5FE0E2002F0B2FE0F2002F0AFFE1020A9
:1006D00002F0ACFE112002F0A9FE122002F0A6FEEC
:1006E000132002F0A3FE142002F0A0FE152002F059
:1006F0009DFE162002F09AFE1C2002F097FE1D209F
:1007000002F094FE1E2002F091FE042002F08EFE04
:10071000052002F08BFE062002F088FE1F2002F06A
:1007200085FEFFF723FE274981F8F40000202349C6
:1007300084390860224908601F49C1F88C0100F023
:100740006AFE002002F0F4FF4FF4E13000F01BFDE0
:100750001C4890F8F400672801DB02F079FB01F0F7
:1007600068FA01F078FC1F4800686422B0FBF2F1DF
:10077000481EB0F1807F37D3012051E00024DE42D3
:100780000044DE420004DE420020DE420040DE4241
:100790000000DE420C21DE420C01DE4200A0DE42FF
:1007A0000064DE420060DE429482DE429402DE4259
:1007B0009422DE429462DE420080DE420C81DE4200
:1007C0000084DE4250E1032048E2032000000140A3
:1007D000AAAA555525642E25642E25642E2564006D
:1007E0006845000000E00320481E4FF0E022506101
:1007F00050170F22002807DA13071E0E834B00F054
:100800000F052D1F5E5503E013071D0E804B1D5471
:1008100000BF00204FF0E02290610720106100200F
:10082000044614B100BF00BFFEE702F0E3FD24E080
:1008300000F078FD7748007881087748C06D61F353
:1008400004107549C865754890F8A801C108724838
:10085000C06D61F345107049C865714801686E4804
:10086000C06D61F300006C49C8656E4801686A4854
:10087000C06D61F341006849C865D9E710B56A48A1
:100880000079C0F3001048B16348007CC0F3001049
:1008900020B90020604908660867C8666248007988
:1008A00001095D48006961F304105B4908615E4815
:1008B0000079C0F3C01030B10846007CC0F3C0100E
:1008C00008B902F047FD58480079C109524800694B
:1008D00061F3C7105049086153480079C0F34010D4
:1008E00030B10846007CC0F3401008B901F09AFA14
:1008F0004D48007941094848006961F3451046496F
:10090000086149480079C0F3C00048B10846007C3E
:10091000C0F3C00020B90020C1F8800002F01AFD29
:1009200041480079C1083C48006961F3C3003A4975
:10093000086101F09AFB10BD10B502F0FAF93648D3
:1009400090F85C00C0F3001028B138480068401CE3
:100950003649086002E000203449086033480068E6
:10096000032805DD2C48006E40F080602A490866A7
:1009700010BD00B5ADF5037D02A84FF4007303AAC6
:10098000F8210090244802F0E1FE03A8029900F04B
:100990006CFC2148806E401C1F4988660DF5037D64
:1009A00000BD10B501F058F810BD10B500F0A4FF5F
:1009B00001F04CFA01F032FE10BD10B51C48006881
:1009C0000A301B490860FFF7F0FF19480068322120
:1009D00090FBF1F201FB120008B9FFF7E2FF1448A7
:1009E0000068642190FBF1F201FB120008B9FFF7E7
:1009F000C0FF0F4800684FF47A7190FBF1F201FBE1
:100A0000120008B9FFF798FF10BD000018ED00E0D4
:100A100000E400E0A8B1034050E1032000B003402F
:100A20008460DE420463DE4248E2032014E00320D7
:100A300018E0032000BF0120F749886000BF70471D
:100A400008B500BF00208DF802008DF801008DF878
:100A5000010000BF9DF80200F04908600020F04945
:100A6000C1F80403EF490860EB49886300BF00BF89
:100A700000BF8DF802008DF801008DF8010000BF65
:100A80009DF80200E84908600020E549C1F88400AB
:100A9000E649086000BF00BF00BF8DF802008DF876
:100AA00001008DF8010000BF9DF80200DE49083109
:100AB00008600020DA49C1F88C00DC490831086080
:100AC000D549486000BF00BF00BF8DF802008DF817
:100AD00001008DF8010000BF9DF80200D4490860B4
:100AE0000020D4490860D449086000BF00BF00BF9F
:100AF0008DF802008DF801008DF8010000BF9DF80F
:100B00000200C649EC3908600020C549C1F8180246
:100B1000C449EC39086000BF00BF00BF8DF8020077
:100B20008DF801008DF8010000BF9DF80200BB495F
:100B3000E83908600020BA49C1F81C02B949E8390F
:100B4000086000BF00BF00BF8DF802008DF80100F3
:100B50008DF8010000BF9DF80100B8490860012030
:100B6000AF49C1F88C010020B549086000BF00BF43
:100B700000BF8DF802008DF801008DF8010000BF64
:100B80009DF80100AF4908600120A549C1F888001F
:100B90000020A649091D08609F49086000BF00BFEA
:100BA00000BF8DF802008DF801008DF8010000BF34
:100BB0009DF80100A449086001209E49091F0860B2
:100BC00000209D49091F086000BF00BF00BF8DF8CD
:100BD00002008DF801008DF8010000BF9DF80100B2
:100BE00098498839086001208D49086000208F49A4
:100BF0008439086000BF00BF00BF8DF802008DF887
:100C000001008DF8010000BF9DF801008B490C39EF
:100C1000086001208249C1F88001002088490C3910
:100C2000086000BF00BF00BF8DF802008DF8010012
:100C30008DF8010000BF9DF801008049083108606F
:100C400001207749C1F8940100207D4908310860EE
:100C500000BF00BF00BF8DF802008DF801008DF8C5
:100C6000010000BF9DF801007449091D08600120C2
:100C70006B49C1F8900100207149091D086000BF4F
:100C800000BF00BF8DF802008DF801008DF8010053
:100C900000BF9DF801006B498839886001206049D8
:100CA0008860002061498439886000BF00BF08BDAA
:100CB00001205E4984394860C86008616348006863
:100CC00040F480306149086070476148007820F046
:100CD00010005F490870084680886FF30B00888019
:100CE0000846007820F00100401C087000BF5848FA
:100CF0000078C0F340000028F9D0554880886FF391
:100D00000B0053498880704700BF50481C30006872
:100D100020F4401040F480104C491C310860012040
:100D20004749091F086000BF00BF48481C300068E1
:100D300020F4402040F4802044491C310860012008
:100D40003F490839086000BFC7204249088042482F
:100D500090F8010240F080003E490B390870802075
:100D60003D4981F80002704700BF38481C300068D8
:100D700020F0406040F0806034491C310860012060
:100D800028496839086000BF00BF30481C3000683F
:100D900020F0407040F080702C491C310860012028
:100DA00020496C39086000BFC7202C4908802A48B8
:100DB00090F8010340F0800028490B39087080202A
:100DC000254981F80003704700BF20481C300068A7
:100DD00020F0300040F010001C491C310860012058
:100DE00012498031086000200B49C86000BF00BF75
:100DF00016481C30006820F0C00040F04000134945
:100E00001C31086001200949843108600020024932
:100E1000086100BF7047000000A0DE420423DE42EC
:100E20000040DE420403DE428420DE428400DE42D3
:100E30000424DE420444DE420404DE428C81DE42AD
:100E40008C01DE428880DE420084DE4200F60640ED
:100E5000003003400C820340008003400C830340B9
:100E600010B53148007820F08000304981F89001B9
:100E70004E2081F87401084690F89C0120F0100083
:100E800081F89C01084690F89C0120F0200081F830
:100E90009C01084690F89C0120F0040081F89C0118
:100EA000084690F89C0120F0080081F89C01084653
:100EB00090F8A40120F0040081F8A401084690F8FD
:100EC000A40120F0080081F8A401174880380078B8
:100ED00020F02000203014498039087000BF1248EB
:100EE00090380078C0090028F9D10F488038007880
:100EF00020F0100010300D4981F8100100BF0A48A1
:100F000090380078C0090028F9D1FFF7D1FEFFF72B
:100F1000DCFEFFF795FDFFF7F7FEFFF725FFFFF774
:100F200053FFFFF787FD10BD90B1034000B00340B1
:100F300008B50020009002E00098401C0090009846
:100F40002828F9DB08BD2DE9F04104460D46174677
:100F50000020287017B18020607001E0A020607030
:100F600040F6B83620E0607900F0040030B1208906
:100F70002870FFF7DDFF0020BDE8F081607800F009
:100F8000020010B16FF00100F6E7607800F0400059
:100F900010B96FF00200EFE7207900F0100010B1F7
:100FA0006FF00400E8E7761E002EDCD1701EE3E748
:100FB0002DE9F84304460E4617460025002020740C
:100FC0008020607447EA460020818020607000BF66
:100FD00040F6B83809E0A8F1010080B2B0F100088D
:100FE00003DC4FF0FF30BDE8F883607800F00100CB
:100FF0000028F0D0607800F0020010B16FF001001E
:10100000F1E7607800F0400010B96FF00200EAE705
:101010006078C00910B96FF00200E4E72079C0F3EE
:10102000401030B12079C00908B9207910E00025BE
:101030000EE0207900F0400048B1E0206070681CAC
:1010400085B2B5F5C87F03DD4FF0FF30CBE7002553
:10105000002DBDD120792079C0F3401040B19DF81A
:1010600000000090002269462046FFF76CFFBAE7B7
:101070000020B8E770B504460D46012229462046F7
:10108000FFF796FF70BD20214170704710B5002812
:1010900007DA0A07140E874A00F00F031B1FD45407
:1010A00003E00A07130E844A135410BD10B504461A
:1010B0000620824988608248006820F0F00080495C
:1010C00008600846006840F0400008607D480068FD
:1010D00020F400307B4908600846006820F4803026
:1010E000086001207849087080204870002048710D
:1010F00008710846407820F010001030487008460B
:10110000407D20F0010170484175407D20F01001C4
:101110006D484175007D20F00400001D6A49087586
:101120000846407D20F0040167484175407D20F06D
:101130000200801C64494875002008760846007D3E
:1011400020F00100401C08756048B0FBF4F0401E20
:1011500088810846407840F0030048703D2000F048
:10116000A0F83D2000F092F80E213D20FFF78EFF01
:101170003C2000F096F83C2000F088F80E213C203E
:10118000FFF784FF10BD10B50446514802F0B2FBD2
:10119000504802F0AFFB2046FFF788FF10BD38B57E
:1011A00049484079C0F38000B8B147480089C4B2CB
:1011B0002146002002F018FB70B16B4648224649D8
:1011C000002002F072FB30B144480068401C4349E3
:1011D0000860FFF753FB00BF24E03B484079C0F3B1
:1011E000401020B13E480068401C3D490860364828
:1011F0004079C0F3001020B13A480068401C3949DA
:10120000086031484079C0F3C00020B1364800681A
:10121000401C354908602C48407920F0800080301F
:10122000294948713C2000F03CF838BD08B56946B2
:10123000284802F085FB48B19DF80000224908814A
:101240002A480068401C294908600AE01E48407D81
:1012500020F002011C48417525480068401C2449C3
:1012600008603D2000F01DF808BD70B504460D462D
:101270002A462146174802F045FB30B11248407D0E
:1012800020F00200801C1049487570BD00F01F025C
:10129000012191404209920002F1E022C2F80011BE
:1012A000704700F01F0201219140124A430942F8A1
:1012B0002310704718ED00E000E400E000F0064065
:1012C0001CF6064000F5064000800340002D310169
:1012D00090E2032098E6032048E2032024E0032064
:1012E00028E003202CE0032030E003201CE0032052
:1012F00020E0032080E200E0032016490870164831
:101300001649086002201649087216480860084607
:10131000007A20F00100401C08724FF0FF300F49A6
:10132000086070470C480D4908604FF0FF300C49C9
:10133000C86000200C490870401E084908607047CA
:101340000A480068401C0949086000F0010008498B
:10135000086070472000014051E5CC1A002C014084
:101360000020014080F0FA0234E0032038E003203E
:101370009081DE4210B50446FE48006E00F4002065
:1013800018B10020FB4908650FE0FA48C06CFA4923
:10139000884204D0F748C06CF849884203D900203D
:1013A000F449086501E0F3480465F248006DF4492A
:1013B0000968884201D9012000E00020F149086055
:1013C000EF480068401CEE490860642801DB0020FB
:1013D0000860E84890F85C0000F00100E9490968FD
:1013E00088420DD1E8480068401CE74908600A2897
:1013F00009DDE048006E40F00060DE49086602E06A
:101400000020E1490860E148C069B0F5803F01D0A3
:10141000FFF796FF10BD10B5DD48808F20F001006A
:10142000DB49888700204870087048720846808A27
:1014300020F00400001D88820846808A20F02000E9
:10144000203088820420888500200885D0483130EB
:10145000007820F0E0008030CD4931310870084636
:10146000007820F01F001E300870481E007820F021
:10147000E0008030C64981F83000C548303000783F
:1014800020F01F001E30C249303108700420C049CE
:1014900081F834000846007820F0400040300870A1
:1014A0000846407A20F0040048720020087208467E
:1014B000808FC0B200F5206088870846407820F011
:1014C0000800083048704C2000F069FB4C2000F008
:1014D0001F02012191404209920002F1E022C2F86C
:1014E000001100BF0D21002807DA0A07140EA94ACF
:1014F00000F00F031B1FD45403E00A07130EA64A83
:10150000135400BFA248808F20F00100401CA04966
:1015100088870020FFF72EFFA04800E0401E28B17A
:101520009B49898FC1F340010029F7D010BD10B548
:1015300004469B48007884420BD00CB1012000E0A7
:101540000020974908700846007810B90020FFF77E
:1015500011FF10BD2DE9F0410246002100250026B3
:10156000002790484368782400BF2AE08D4850F84F
:101570003100904224D2481EDFF828C25CF83000C7
:101580005CF831C0A0EB0C06864800EBC100D0F837
:1015900004C0481EDFF80C8208EBC0004068ACEBCA
:1015A0000007B7FBF6F5481EC4460CEBC000D0F8A8
:1015B00004C0481E58F83000101A00FB15C302E0A2
:1015C000491CA142D2D300BF76484068984202D954
:1015D0006948BDE8F081601EDFF8C8C10CEBC000AF
:1015E0004068984201D26448F3E71846F1E710B525
:1015F0002DED048B0024654880695F49884202D044
:101600006248806930B95B48006E40F40000594977
:10161000086615E05D4880696349884203D200206E
:10162000624908600CE061480068401C5F4908603E
:10163000642805D94F48006E40F400704D49086693
:101640004C48C06C4C49884215D04A48C06C584937
:10165000884203D20020574908600CE055480068D2
:10166000401C54490860642805D94248006E40F483
:101670000060404908663F48806C3F49884223D05B
:101680003C48806C484988420DD94B480068401C52
:101690004949086064281DD93648006E40F48060CE
:1016A0003449086616E03348806C42F21071884273
:1016B00006D23048006E40F480402E49086609E0AA
:1016C00000203D49086005E000203B490860BDEC72
:1016D000048B10BD2748806C38490968884205D1C1
:1016E00000203749374A1278885410E02148806C2E
:1016F00032490968884205D901203149314A1278B6
:10170000885404E0FF202E492E4A127888542D4830
:1017100001780078401C2B4A10700A2902DB002057
:10172000114608700024002003E0254909560C44A6
:10173000401C0A28F9DB0F48006D00287ED0002CE1
:1017400003DD00202049086009E02048007830B916
:10175000002C04DA1C480068401C1B4908601A4829
:101760000068B0F5FA6F37D90248006E40F40050B7
:1017700000492DE050E10320AAAA5555701101003F
:1017800070E003208C81DE4274E0032048E20320F5
:101790000070024018ED00E000E400E040420F005D
:1017A00048E0032088450000F824010078E0032089
:1017B000C82C010080E003207CE0032084E00320AB
:1017C000F0EA03208CE0032090E0032094E0032063
:1017D00008660020F6490860F648816CF648006803
:1017E000401C814204D349F64040F449086012E0AD
:1017F000F348007878B9F1480068401EEF49086066
:10180000002808DC49F640400860EA48006E40F0D5
:101810008000E8490866EB49086902F070FB41EC7A
:10182000190B9FEDE90B53EC102B02F076FA41EC0B
:10183000180B02F090FBE349896900E051E088420F
:101840001FD8E049086902F05AFB41EC190B9FEDE3
:10185000E00B53EC102B02F060FA41EC180B02F095
:101860007AFBD849896988420BD347F23050DA496C
:10187000086044F25060D94908600120D0490870DE
:101880000EE00020CE490870D34801680068401E71
:10189000D14A1060002903DC47F23050114608603D
:1018A000C8488169CE480068401C814204D944F28E
:1018B0005060CA49086014E0C148007888B9C74838
:1018C00001680068401EC54A1060002909DC44F226
:1018D000506011460860B748006E40F48070B5490A
:1018E0000866B448806CB4490860B6488069BC4951
:1018F0000860B048006EEAE670B5B2480069B949C0
:10190000884202D90846AF490861AE48006964219F
:10191000B0FBF1F0B4490860AA4844690846006881
:10192000C830A04203DD0846006800F1C804012564
:10193000A048C06CAB4988420BD99E48406CC0EBB4
:10194000001080004FF47A71B0FBF1F00A2800D942
:1019500000259848C06C4CF2503188420BD995480C
:10196000406CC0EB001080004FF47A71B0FBF1F0D6
:101970000A2800D800259D480078E8B38D48806C7F
:10198000A04240D2C5B38B48406CC0EB0010800031
:101990004FF47A71B0FBF1F0502834D28948806955
:1019A0009349884213D18348006E40F40000814976
:1019B00008660846806C6421B0FBF1F68A4930461F
:1019C00001F035FB88490869FFF7D4FC24E07D4825
:1019D00080696421B0FBF1F68349304601F027FBB2
:1019E00081490869FFF7C6FC764880696421B0FB2D
:1019F000F1F07D49096800E005E088420CD2012041
:101A00007949C86108E00020FFF7B4FC764801F08E
:101A10000BFB00207449C8616A4880697449884298
:101A20000DD16448816C67480069A0F57A708142E5
:101A300001D9012000E000205E4948650BE06148C3
:101A400081690069A0F57A70814201D9012000E026
:101A500000205849486570BD10B56648407A20F0AE
:101A60000100401C63494872FFF7C1FD10BD70B50D
:101A700000256048407A20F020005E494872084600
:101A8000407E20F0200048760846407820F0400054
:101A9000487008464078C009002871D00846C068E0
:101AA000C0F30030002865D10846808900F01F058A
:101AB000022D2FD1C9894FF6F07201EA0200FFF71B
:101AC00049FD04464A48844206D13A48006E40F037
:101AD0008070384908664DE0474801680068401C3E
:101AE000454A1060454840F82140104600680A28E1
:101AF00005DB00201146086001204149086040488C
:101B00000068B8B300220A213C4801F062FA294972
:101B1000C8642FE03749C9894FF6F07201EA020024
:101B2000FFF718FD04463248844206D12148006E72
:101B300040F000701F4908661CE0324801680068E8
:101B4000401C304A1060304840F821401046006880
:101B50000A2805DB00201146086001202B49086097
:101B60002A48006830B100220A21274801F031FAE2
:101B7000104988641F48407820F080001D49487053
:101B80001C48407820F020001A4948700846C06C74
:101B900020F00100C8644C2000F001F870BD00F096
:101BA0001F02012191401A4A430942F8231070474D
:101BB00090E0032050E1032084E003203CE0032078
:101BC00094E0032048E20320666666666666EE3FA0
:101BD000CDCCCCCCCCCCF03F44E0032040E0032083
:101BE00088E00320701101004CE0032048E003204E
:101BF000AAAA55550070024098E00320A0EA0320ED
:101C0000A0E003209CE00320C8EA0320A4E0032016
:101C100080E200E000210164CB498268116000216C
:101C2000C1637047C94908607047C84914310860EA
:101C3000704710B56821C64801F0FAFEC548C4498E
:101C40000860C548486001200861C4488860BE48F3
:101C5000896808601020BE49086614204866084656
:101C6000FFF7D8FFBA4991F860000C3101F06EF926
:101C70006821BB4801F0DCFEBA48B9490860BA489F
:101C800048600A200861B54810388860AE48896805
:101C900008600820B24908660C204866AA4889688E
:101CA0000860AF48FFF7B6FFAD4991F860000C310E
:101CB00001F04CF9AA488089AC49088010BD2DE993
:101CC000F843044600270020009080466E46606C72
:101CD000A0B9A06C022802D1012061688847A06CDD
:101CE000401EA064002807DC2046FFF793FF012078
:101CF0006168884701206064BDE8F883606C002853
:101D00002DD078212068FFF7B5F905462DB90022BE
:101D1000711C2068FFF717F905462DB901223146DD
:101D20002068FFF710F905462068FFF7ACF925B9E0
:101D30004FF6FF710098884212D1002061688847F1
:101D4000002060640420A064E06C401CE064E06C4F
:101D5000032865DD0020E0647B48A16808605FE03F
:101D6000009848B9206D401C20650A2858DD764847
:101D7000401CA168086053E047F6FF710098884254
:101D800009D1606D401C60650A2849DD6E48801CE1
:101D9000A168086044E0206D10B1206D401E2065F0
:101DA000606D10B1606D401E60650020E0640099B8
:101DB000E26B501CE06304F1140040F82210E06B69
:101DC0000A2801DB0020E06300220A2104F114004C
:101DD00001F0FFF8804601202064206C00B3E06D24
:101DE00008B10020E065E06820B144F27401E068C9
:101DF0000F1A09E059482838006E40F480105749FE
:101E00002839086644F27407A8EB070021694843A3
:101E10000090009840001B2190FBF1F0A168086041
:101E200000BF69E7704701204D49C8654849C8654A
:101E300070474B48C06D20B94548C06D08B90120B6
:101E400070470020FCE74248006C704710B52DED4C
:101E50000C8B00BF4248FFF732FF3D48FFF72FFFD2
:101E60003F48806D38B13D482838006E40F0100082
:101E70003A49283908663648806D38B137482838DD
:101E8000006E40F020003549283908663848808CBB
:101E9000642804DB3648808CB0F5FA7F07DDB52076
:101EA000334988840846808C2C49283988872B49F7
:101EB0002839886901F05CFD60B128492839886AB1
:101EC00001F056FD30B125482838B0F8600000F424
:101ED000004020B11C4821492839086330E02449DA
:101EE000888C02F00CF841EC1D0B9FED220B53EC9B
:101EF000102B01F012FF41EC1B0B1849283989699E
:101F0000164A283A926A881A01F0E8FF41EC1C0B45
:101F100053EC1B2B01F073FF41EC190B0F492839CF
:101F2000886901F0DBFF41EC1A0B53EC192B01F02F
:101F3000EEFE41EC180B01F0EFFF08492839086369
:101F4000BDEC0C8B10BD0000AAAA55558081DE4265
:101F500064EB0320008203402B1C000078E1032087
:101F6000FCEA032000830340251C0000A8E00320B6
:101F700048E203207B14AE47E17A843F10B5FE4867
:101F8000406920F010001030FB494861FB480068B0
:101F900020F0E050F94908604FF6FF70F8490880DA
:101FA0001720F849A1F84801084690F86D0120F083
:101FB000010081F86D01084690F86D0120F00200E3
:101FC00081F86D01084690F86D0120F0040081F859
:101FD0006D01084690F86D0120F0080081F86D0150
:101FE000E7484630007820F00100401C81F8880165
:101FF000E3484630007820F00200801C81F8880118
:10200000DF484630007820F01000103081F8880159
:102010001A2001218140DC4A430942F8231000BF05
:1020200000BF012181404209920002F1E022C2F882
:10203000001100BF0521002807DA0A07140ED34A51
:1020400000F00F031B1FD45403E00A07130ED04AFD
:10205000135400BF10BD10B5FFF790FFCD4800F03E
:10206000E3FFCD48CD49C86110BD4FF4FA70CC49AB
:10207000086070470020CB49086040F6B830CA4974
:102080000860C548C5498863C8490860C8490860F0
:10209000C2490862C7490860C7490860BF49C862A9
:1020A000C6490860C64908607047BB4988420DD0E0
:1020B000C449898860F30B01C24A9180642141437D
:1020C000B44A9269B1FBF2F1B44A11647047B34962
:1020D000496E60F34101B14A5166BB4908607047DF
:1020E00010B50020FFF7F3FF0020FFF7DEFFFFF73A
:1020F000C1FF0020B549086010BD10B5A8480068B0
:1021000000280CDDA6480068401EA549086000288C
:1021100005DCA248006E40F48020A0490866AC4867
:10212000006840B39D4890F8600000F0080010BBC4
:10213000A7480068A7490968884207D0A4480068F2
:10214000A449086042F21070A3490860A2480068E0
:102150000A38A14908600846006800280BDA8F4851
:10216000806E8E49C8669A48006808670846006E07
:1021700040F0080008668948006E00F4802020B115
:10218000FFF7AEFF0020FFF7D2F910BD30B518B150
:102190000C68641C0C6002E00C68641E0C600C6827
:1021A0009C4210DD8A4CE46940F20235AC4202D117
:1021B0007A4DAC6504E0794C246E1443774D2C665F
:1021C00000240C6004E00C68002C01DA00240C6090
:1021D00030BD10B574480068002805DD72480068FD
:1021E000401E7149086010BD6E480068401C6D4972
:1021F000086041F2707188423ED96E4800686649B5
:10220000884202D16549086206E06B480068694966
:102210000968401A614908625F4866490860664972
:102220000860664800685C49884202D15B49C86220
:1022300006E06348006861490968401A5749C86266
:1022400055485E4908605E49086058480068524930
:10225000884202D15149886306E0554800685349D5
:102260000968401A4D4988634B48504908605049F5
:10227000086000204B4908604849886901F078FBF4
:10228000E8B14C4800684449884205D04348806919
:1022900048490968884203DA40488069454908602E
:1022A000454800683C49884205D03C48806942491D
:1022B0000968884203DD394880693F490860374929
:1022C000886A01F055FBE8B13C4800683249884211
:1022D00005D03248806A39490968884203DA2F48B4
:1022E000806A36490860364800682B49884205D024
:1022F0002A48806A32490968884203DD2748806A93
:102300002F4908602549086B01F032FBE8B12748E6
:1023100000682149884205D02048006B234909689C
:10232000884203DA1D48006B204908602048006895
:102330001949884205D01948006B1D49096888422F
:1023400003DD1648006B1A49086000BF4BE770B503
:1023500004461248806A104988420AD00F4890F813
:102360006400C0F3400020B10C48006E00F420204F
:10237000A0B3FFF7B5FE3AE100F0064004F60640D0
:10238000420102400000024080E200E018ED00E05F
:1023900000E400E014E10320AAAA555550E103200F
:1023A000ACE00320B8E00320BCE00320C0E0032041
:1023B000C4E00320C8E00320CCE00320D0E00320E9
:1023C000D4E00320003003408880DE42B4E00320E4
:1023D00048E2032038E103203CE10320FFE7002C22
:1023E0005CD0FFF7F6FEF448007900F00100002809
:1023F00054D1F148C069B0F5007F05D3EE48C069FB
:1024000040F20A21884249D3EB48C069B0F5806F99
:1024100005D9E948C06940F2054188423ED3E74802
:102420000068B0F5FA7F39DBE548406CC0EB00107E
:1024300080004FF47A71B0FBF1F5DF48C06940F2DB
:10244000023188420DD15F2D01DD012100E0002124
:1024500008464FF47A734FF40032DA49FFF796FEDC
:102460000CE05F2D01DD012100E0002108464FF462
:102470007A734FF40032D349FFF788FED049096BD5
:10248000012901DD012100E000210846CE494FF479
:1024900000220B68CD49FFF779FE00BFCC48C06928
:1024A00058B9C748006B4042C9490968884204DAF4
:1024B000C748C069401CC649C861C64800680228B0
:1024C0003AD1BF488069002826DDBD48006BC0496D
:1024D0000968084410F10F0F1EDDB948006BBC49B4
:1024E000096808440F2817DABB480068401CBA493D
:1024F000086008460068642819DD0320B5490860B3
:10250000B348006AB249C96890FBF1F0B04908626B
:102510004FF47A7048600AE0AD48C0684FF47A71B1
:1025200091FBF0F0AA4948600020AB4908604FF4E5
:102530007A70A549086006E04FF47A70A4494860B3
:102540004010A14908609E49096B4842A04900F02B
:102550006EFD9A480068401C984908609C48006AD3
:102560009749C8679A490869FFF79FFD9449D1F8D0
:1025700090100622B1FBF2F302FB13109049B1F860
:1025800090100AB28E49943101EB00110A808C49F7
:10259000098B0AB28A49943101EB00114A808849BB
:1025A000098D0AB28649943101EB00118A80844971
:1025B000098E0AB28249943101EB0011CA80804928
:1025C000B1F840100AB27E49943101EB00110A8142
:1025D00082490A687A49943101EB0011CA6078494E
:1025E000D1F89010491C764AC2F8901000BF70BD17
:1025F00010B57349886901F0BBF970B17048C069C2
:102600007749884205D06E4880696D49C96988421A
:1026100003DD6B4880696A49C86110BD70B541F23D
:102620008834FFF76AFD6648806A6D4988420ED19A
:102630006348006E40F0200061490866FFF750FDD6
:102640000020FEF774FF04205D49886570BD604876
:1026500040685B4948675E48806888675C480068F6
:1026600048635548C069832876D024DC132874D089
:102670000CDC73D2DFE800F0F05D73EFEEED72EC8E
:102680007272727272727272EBEAE90018287DD06F
:1026900008DC14287BD015287AD0162879D0172882
:1026A0005CD1DFE1192875D0802874D0812873D0DF
:1026B0008228F5D140E240F21312811A90426CD088
:1026C0001DDC40F20112A0EB0201904266D00DDC4D
:1026D00086286DD004DC84286BD08528E0D136E2D2
:1026E000872867D0B0F5807FDAD1CAE1012962D0AE
:1026F00002297DD010297CD01129D1D1D7E1F02930
:1027000078D008DC012976D0ED2975D0EE2974D077
:10271000EF29C5D194E2A1F2ED1000286ED0012876
:102720006DD002286CD0A0F57D4002380028B7D1CA
:10273000ABE22C480068002809DD00202A49086027
:102740002A4908601E48006B4042214908601A4827
:10275000C0691B498865D4E2F7E16FE1B2E2214824
:102760000068002870DD1F480068401C1D49086093
:102770001E480068401C1D490860084600680A2879
:1027800047DD134801680C48C06808E06FE15AE172
:102790005EE162E170E1CDE1CDE189E172E196387F
:1027A00081422EDD0A480068401E094908602DE07C
:1027B000CEE1CBE1CDE166E148E20320B4E00320C5
:1027C00050E1032008E10320E0E0032004E10320BE
:1027D00014E10320D8E00320DCE0032000E1032023
:1027E000AAAA5555ECE00320F0E00320F4E0032012
:1027F0004AE15BE125E26EE1ECE1ECE1AEE1C0E152
:10280000C9E1FE48C0689638FD4908600020FD49CE
:1028100008600020FFF79BFDFB49086B002801DBE7
:10282000014600E04142142917DAF8480068401CCC
:10283000F649086008460068B0F5967F28DDEF4845
:10284000C069F149886523E02DE0F2E0ECE0E6E0C4
:1028500097E058E02CE02DE02BE0E9480069E849DA
:102860004969884211D1E9480068401CE74908607D
:1028700008460068B0F5FA6F03DDE048C069E24938
:102880008865DF4800F0D0FB02E00020DF490860E7
:10289000DF48006841F29411884208DDD748C069DA
:1028A000D949886503E0D548C069D749886528E2D9
:1028B00000BF00BF0020FEF73AFEFFF711FC00202A
:1028C000D149C1F89000D3490860CF48806D0428F1
:1028D00001D900F03FFDCA4800F0A6FB0020C8491E
:1028E000C8610120CC4908600020CC4908604FF441
:1028F000FA70CB4908600020C5490860BF48C0692C
:10290000C1498865FDE10120FEF711FEBE48806DDA
:10291000062800D1F5E1BC48806D052802D00020D2
:10292000C0490860BF4800680A30BE4908600120FD
:10293000FFF7CDFB41F28834BA480068214688424F
:102940000DDAAF488069C0EB001000EB8000642115
:1029500090FBF1F0451C2846FFF7A7FB0CE0B148BF
:10296000006844F62061884203DA0120FFF7EFFC9B
:1029700002E00620A4498865A048C069A24988658C
:10298000BFE19E48C069A049896D884235D04FF4A7
:102990007A709B49486040008860984880680828A1
:1029A00001DA0220C86095488068082803D1032016
:1029B0009349C86002E004209149C860022096490A
:1029C000086000208E49C8618C48C06808600846CD
:1029D0000068322801DA96200860894800F024FB5C
:1029E00091488949C8610846006E20F42020086695
:1029F00000208E4908608E4908600120FEF797FD8F
:102A00000120FFF764FB41F288340120804908600F
:102A1000FFF79DFC7948C0697B49886571E177487B
:102A2000C069794988656CE17448C06976498865F0
:102A300067E17248C0697449886562E16F48C0699E
:102A4000714988655DE16D48C0696F49886558E1E5
:102A50006A48C0696C49886553E16848C0696A4939
:102A600088654EE16548C0696749886549E1634802
:102A7000C0696549886544E16048C0696249886504
:102A80003FE100BF00BF00BF0020FEF750FDFFF791
:102A900027FB65485C49C86141F28834584800F01A
:102AA000C3FA5648C069584988652AE100BF00BF8B
:102AB0000020FEF73CFDFFF713FBFFF799FD41F205
:102AC000883400205B4908605B4908604B48C06956
:102AD0004D49886515E1FFF78BFD4848806A5549E7
:102AE0000968884205D84548C06A53490968884240
:102AF0000BD2504800680A304E4908600020FEF7AB
:102B000016FD0020FFF7E3FA0AE04B4800680A30A0
:102B1000494908600120FEF70AFD0120FFF7D7FAB6
:102B20000020FFF7C2FA41F288343448C0693649C0
:102B30008865E6E000BF00BFFFF7D2FA41F28834B3
:102B40002E48C06930498865DBE000BF00BF00BF88
:102B500000BF2A48C0692C498865D2E00020FEF7F2
:102B6000E6FC0120FFF7B3FA254800F05DFA0120EA
:102B7000FFF7EDFB41F288342048C069224988659F
:102B8000BFE00120FFF7E3FB41F288341B48C06936
:102B90001D498865B5E01C48806D1849C96988429F
:102BA0000FD041F288341848006E00F4202020B184
:102BB0001248C069144988650BE00120FFF7C7FB84
:102BC00007E00020FEF7B3FCFFF78AFA0020FFF7CA
:102BD0007EFA96E000BF0A4800F026FA0020FEF7D1
:102BE000A6FCFFF77DFA0848006E20F42020064975
:102BF00008664FF47A740148C0691FE048E2032078
:102C000014E10320F4E0032050E10320F0E003206E
:102C1000ECE0032000E10320D8E00320DCE0032007
:102C2000E0E00320B0E00320AAAA555504E1032008
:102C300008E10320E4E00320E8E00320886560E089
:102C400000BF0020FEF773FC0120FFF740FA0120CF
:102C5000FFF77DFB41F288346448C06940F20221ED
:102C600088420DD06148C069491C88420CD1604837
:102C700080696049884207D05D488069002803DD8B
:102C80005A48C0695A4988653BE00020FEF74FFC6E
:102C9000FFF726FA5648806D5749884206D05448B7
:102CA000806D491C884201D0FFF7BDF8FFF7C1F8DD
:102CB00020B15148401C4E49886502E04E484C49BD
:102CC00088651EE04948C069B0F5907F10D3474839
:102CD000C069B0F5007F0BD20020FEF728FCFFF79B
:102CE000FFF941F288344148C0694149886507E0ED
:102CF000FFF7F6F90020FEF71AFC00203C49886532
:102D000000BF00BFFFF79FF888B1002C0FDD3848E7
:102D10008069384988420AD035488069A04206DD7A
:102D20003348006E40F40040314908668EE400BF2D
:102D30008CE410B52E48406C88B12D48D0F8800046
:102D4000401C2B49C1F880000846D0F880003C2187
:102D5000B0FBF1F201FB120008B900F0FBFA2748C2
:102D60000068322148434FF47A71484340F6FC0131
:102D7000B0FBF1F00621B0FBF1F01D4948640020E2
:102D80001F4908601D49086010BD002000211D4A30
:102D90001268012A29D11C4A1268C2F300120ABB28
:102DA0001A4A12683AB11A4A12881A4B1A8000223B
:102DB000164B1A6016E0164A1088164A1288821AB4
:102DC00091B20F4A12680A440D4B1A60114A1080E2
:102DD0000A4A1268521C094B1A600F4A1268521CA8
:102DE0000D4B1A600022074B1A60704748E203201F
:102DF00050E10320AAAA555502000100FCE003207F
:102E0000F8E003201831404214F3064040E103206B
:102E10007E01024044E1032000E10320DFF82400AA
:102E2000016841F470010160074880470748004786
:102E3000FEE7FEE7FEE7FEE7FEE7FEE7FEE7FEE76A
:102E4000FEE7FEE788ED00E05502000041020000C9
:102E500010B500F019F901204C49086010BD77B594
:102E600081B004460D464948006810B9012004B0FD
:102E700070BD00BFB4F5806F02D300BF00BFFEE796
:102E800000BF00200090200200900098284400908D
:102E900003AE04223146009800F026FA0020E6E74F
:102EA000F8B504460D4616463848006808B90120B2
:102EB000F8BD00BFB4F5806F02D300BF00BFFEE7CE
:102EC00000BF00200090200200900098284400904D
:102ED00004223146009800F0DFF90020E8E708B549
:102EE0000020009002E00098401C009047F2305112
:102EF00000988842F7D308BD70B504460D462348B4
:102F0000006808B9012070BD2A4621460020FFF75D
:102F1000A6FFFFF7E4FF0020F5E738B505460C46AD
:102F2000002020601948006808B9012038BD002041
:102F300000906A462946FFF7B3FF0098401C18B17D
:102F4000009820600020F1E70120EFE738B5054642
:102F50000C46002020600D48006808B9012038BDEB
:102F600069462846FFF7D9FF08B10120F7E7009826
:102F700080B200996FEA214189B2884204D1009859
:102F800001B221600020EAE70120E8E748E10320E0
:102F9000F0B50C46002100220023002500BF15E0FB
:102FA0000B460A4607E050F8236050F82270BE42F4
:102FB00000DD1346521CA242F5DB50F8215050F8B8
:102FC000236040F8216040F82350491CA142E7DB10
:102FD000F0BD2DE9F04781460D461446002600213C
:102FE0000F468846B4EB550F01D3002403E0294671
:102FF0004846FFF7CDFF264606E059F82600C719D8
:1030000048EBE07806F10106A5EB0400B042F4D8E5
:10301000A5EB440C624600233846414600F0BEFC56
:1030200007463846BDE8F08700210162704730B599
:103030000246144CA24200D10A680C68A31A8C689C
:103040005CB1CC694CB18D690C69AC4205DA03EB1B
:1030500083050C6A04EB45040C628D680C6A94FBD2
:10306000F5F41C444D6804FB05F0642490FBF4F077
:103070004C69844200DD48698C69844200DA8869C1
:10308000086130BDAAAA55550120AA490860AA497D
:10309000C1F894020020A94908600120A8490860ED
:1030A000A44984310860A74908600020A3498431FD
:1030B00008600120A249843108600020A2494862CA
:1030C00001207047002000E0401C0028FCD0704721
:1030D00010B500BF00209749086000BFFFF7F2FF5E
:1030E00000BF012093498431086000BFFFF7EAFF69
:1030F00000BF01208F49086000BFFFF7E3FF00BF5A
:1031000000208C498431086000BFFFF7DBFF00BF5F
:10311000012088498431086000BF10BD10B5044605
:1031200000BF04F001008349086000BFFFF7CAFF39
:1031300000BF01207F498431086000BFFFF7C2FF54
:1031400000BF00207B498431086000BF012010BD12
:1031500010B5002400BF01207649086000BFFFF7CA
:10316000B1FF00BF012073498431086000BFFFF741
:10317000A9FF76480068C4B200BF00206D498431C1
:10318000086000BF204610BD70B506460024002030
:103190006C4984390860002505E06006040EFFF7DD
:1031A000D7FF04436D1C082DF7DB012065498439E6
:1031B00008606749C1F894023046FFF7AFFF204628
:1031C00070BD2DE9F041044601254FF47A770026C1
:1031D00006E0C4F3C010FFF7A1FF6006040E761CE2
:1031E000082EF6DB002057498439086000BFFFF73E
:1031F000AFFF0546012D02D1781E071EF7D1012031
:103200005049843908605249C1F894022846BDE803
:10321000F08110B500BF01204649086000BFFFF7EC
:1032200051FF00BF012043498431086000BFFFF710
:1032300049FF00BF00203F49086000BFFFF742FF81
:1032400000BF00203B498431086000BFFFF73AFF10
:1032500010BD31B50025A8249DF8020000F0030040
:1032600044EA4004FFF7D5FF2046FFF7AAFF9DF888
:103270000100FFF7A6FF9DF80000FFF7A2FFFFF790
:10328000C8FFA920FFF79DFF0120FFF77DFF05463E
:10329000FFF71EFF284638BDF7B50C461546A82691
:1032A0009DF8020000F0030046EA40060098FFF790
:1032B000D0FF04F8010B681EC5B2FFF7AAFFA920D2
:1032C000FFF77FFF04E00020FFF75EFF04F8010B2B
:1032D000681EC0B2051EF6D10120FFF755FF207011
:1032E000FFF7F6FE0020FEBDF7B50C461546A826F2
:1032F0009DF8020000F0030046EA4006FFF789FF50
:103300003046FFF75EFF9DF80100FFF75AFF9DF87A
:103310000000FFF756FF03E014F8010BFFF751FF21
:10332000281EA5F10101CDB2F6D1FFF7D1FE002094
:10333000FEBD00009482DE420040DE429402DE4286
:1033400094E2DE421843DE4200A0DE429462DE4296
:103350000080DE4210B53248C06B80B13048C06B8F
:103360003049D1F88410884209D02D48C16B202003
:10337000FFF7C2FD2A48C06B2A49C1F884002948DA
:10338000D0F880002849096888420AD02548D0F83A
:1033900080100020FFF7B0FD2248D0F880002249BD
:1033A00008601F48006C80B11D48006C1D49D1F8B1
:1033B0008810884209D01A48016C2420FFF79CFD30
:1033C0001748006C1749C1F888001548406C80B157
:1033D0001348406C1349D1F88C10884209D010482A
:1033E000416C2820FFF788FD0D48406C0D49C1F85D
:1033F0008C0010BD10B50B4980310020FFF78DFD0A
:10340000084984312020FFF788FD064988312420AF
:10341000FFF783FD03498C312820FFF77EFD10BDA7
:1034200048E2032050E103204CE103200146282913
:1034300075D2DFE801F0141C242C343C444C545C5D
:10344000646C757D858D959DA5ADB5BDC5CDD6DF6B
:10345000F6FFF3F2F1F0EFEEEDECEBEAE9E8B2485B
:10346000006820F08050B14AC2F8000159E1AE482E
:10347000006820F08060AD4AC2F8000151E1AA481E
:10348000006820F08070A94AC2F8000149E1A6480E
:10349000006820F48030A54AC2F8000141E1A2484A
:1034A000006820F40030A14AC2F8000139E19E48CA
:1034B000006820F480209D4AC2F8000131E19A485A
:1034C000006820F40020994AC2F8000129E19648DA
:1034D000006820F00100954AC2F8000121E19248FD
:1034E000006820F00200914AC2F8000119E18E48FC
:1034F000006820F004008D4AC2F8000111E18A48FA
:10350000006820F00800894AC2F8000109E18648F5
:10351000006820F01000854AC2F8000101E1FEE0D9
:103520008148006820F02000804AC2F80001F8E0DD
:103530007D48006820F040007C4AC2F80001F0E0BD
:103540007948006820F08000784AC2F80001E8E07D
:103550007548006820F48070744AC2F80001E0E009
:103560007148006820F40070704AC2F80001D8E089
:103570006D48006820F480606C4AC2F80001D0E019
:103580006948006820F40060684AC2F80001C8E099
:103590006548006820F48050644AC2F80001C0E029
:1035A0006148006820F40050604AC2F80001B8E0A9
:1035B0005D48006820F480405C4AC2F80001B0E039
:1035C0005948006820F40040584AC2F80001A8E0B9
:1035D00055481030006820F48030544AC2F8100179
:1035E0009FE051481030006820F400304F4AC2F884
:1035F000100196E04C481030006820F480204B4ABF
:10360000C2F810018DE081E077E06DE063E059E001
:103610004FE045E03BE031E027E01DE013E009E04A
:10362000FFE741481030006820F400203F4AC2F80C
:10363000100176E03C481030006820F480703B4A6E
:10364000C2F810016DE038481030006820F40070B6
:10365000364AC2F8100164E033481030006820F4A4
:103660008060324AC2F810015BE02F4810300068D9
:1036700020F400602D4AC2F8100152E02A481030B0
:10368000006820F00100294AC2F8100149E02648EC
:103690001030006820F00200244AC2F8100140E017
:1036A00021481030006820F00400204AC2F81001C0
:1036B00037E01D481030006820F008001B4AC2F8AF
:1036C00010012EE018482030006820F48070174A5E
:1036D000C2F8200125E014482030006820F01000D6
:1036E000124AC2F820011CE00F482030006820F088
:1036F00020000E4AC2F8200113E00B482030006879
:1037000020F00100094AC2F820010AE006482030F2
:10371000006820F00200054AC2F8200101E0042000
:10372000704700BF0020FBE700C1034000C003401A
:1037300010B5044604EB440101EBC4116C4A02EBE2
:1037400081004FF4037100F073F910BD2DE9F047CB
:1037500006460C461F46DDF820C00025002188469D
:103760006000401DB84202DD0020BDE8F0874FF048
:10377000020A0846491C02F800A033461AE093F8F2
:10378000009008F10100804648442844C5B21878EA
:103790004FF0410909EB101A0846491C02F800A035
:1037A000187800F00F0061308946491C02F80900C2
:1037B000641E5B1C002CE2D1412000EB151A084668
:1037C000491C02F800A005F00F0061308946491C31
:1037D00002F809004FF0030A0846491C02F800A04D
:1037E000CCF800100120C0E770B506460D4606EB88
:1037F000460000EBC6103E4901EB8004022D06D1C5
:103800004FF40371204600F013F9002070BD032D22
:1038100017D12068002812DD94F8090294F80812E4
:10382000884205D12068401E206001206060EDE7DD
:103830004FF40371204600F0FBF80020E6E700207B
:10384000E4E72068B0F5007F04DB3046FFF770FF47
:103850000020DBE7412D12DB5A2D10DA206840B141
:1038600094F809022178084494F80812084484F86E
:103870000802681E0007000E84F8090213E0612D9B
:1038800011DB7A2D0FDA94F80902691E01F00F019D
:10389000084384F8090294F809122268501C206039
:1038A00004F1080081540020B0E72DE9F0410546FD
:1038B0000E461746984605EB450000EBC5100C492F
:1038C00001EB8004606810B90020BDE8F081206839
:1038D000B84201DD0020F8E704F108013046226813
:1038E00000F08DF82068C8F800000120EDE7000026
:1038F000CCEB032010B504464FF48161204600F064
:1039000097F810BD70B503460C460AB9002070BD8B
:10391000196810E026780846491C03F108052E5462
:10392000B1F5806F00DB00215868884201D100208A
:10393000EDE7521E641C002AECD119600120E6E775
:1039400010B50246D2E9003098420FD05068431CAF
:1039500002F108005468005D0870B3F5806F01DA69
:10396000536001E000205060012010BD0020FCE702
:1039700001460948814201D1002070470648401C99
:10398000814201D10020F8E70348801C814201D127
:103990000020F2E70120F0E7AAAA55552DE9F041F1
:1039A0000024061B254671F1000605DA01240027D4
:1039B000D0EB070067EB0101161E73F1000605DA74
:1039C0000027D2EB0702012567EB030300F0DCFAC6
:1039D00086460E4617469C46AC4204D00025D0EBE6
:1039E000050E65EB010624B10020D2EB000760EB69
:1039F000030C704631463A466346BDE8F08140EA22
:103A000001039B0703D009E008C9121F08C0042A5C
:103A1000FAD203E011F8013B00F8013B521EF9D243
:103A20007047D2B201E000F8012B491EFBD270476B
:103A30000022F6E710B513460A4604461946FFF77A
:103A4000F0FF204610BD00000FB400B58DB010A9E6
:103A500009900B9000914FF0FF300A9000200C90DD
:103A600005480690054807906A4609A80F9900F096
:103A700001FB0DB05DF814FB91400000AF40000069
:103A80002DE9FF5F1D464FF0FF3BD5E9014691460A
:103A90005F464FF00008A9697F1C01988847296A92
:103AA000824688470028F6D1BAF1FF3F0CD024F4B3
:103AB000C064002E19DD600614D5BAF12B0F09D0B1
:103AC000BAF12D0F0ED103E0584604B0BDE8F09FC7
:103AD00044F48064A9697F1C01988847761E824659
:103AE000002E02DDBAF1300F03D0B9F1000F26D05D
:103AF00032E0A969761E44F400747F1C019888475F
:103B00008246002E05DDBAF1780F06D0BAF1580FC3
:103B100003D0B9F1000F10D01EE0B9F1000F02D0B0
:103B2000B9F1100F18D1A969761E24F400747F1C16
:103B3000019888478246102002E0082000E00A2011
:103B4000814609E008FB0908A969761E44F400745F
:103B50007F1C019888478246002E05DD4946504665
:103B600000F074FA0028EDDAE96901988847A005A9
:103B700002D46FF00100A8E7E00725D1600613D555
:103B8000600502D5C8F1000000E0404629680A1D22
:103B90002A600968220501D5087015E0220701D5C1
:103BA000088011E008600FE02868011D29600068A6
:103BB000210502D580F8008006E0210702D5A0F893
:103BC000008001E0C0F8008038467EE72DE9FE4F16
:103BD000804681EA0300C00F0C46009021F00041AE
:103BE00023F00045B8EB0200A94105D2404621462A
:103BF00090461C460B46024623F00040104347D037
:103C0000270DC7F30A00C3F30A510290401A01902E
:103C100040286BDAC3F3130040F4801B00989246EF
:103C200020B10023D2EB030A63EB0B0B019859463A
:103C3000C0F14002504600F0D8F906460D46504605
:103C40005946019A00F0F0F910EB08006141002498
:103C500087EA115284EAE7731A4340D0009A62B3AC
:103C6000019A012A4FEA075215DC001B61EB0201A1
:103C70004FF0004202EA0752CDE90042001C41F534
:103C8000801132462B4600F032FA03B0BDE8F08FC7
:103C900040462146F9E7001B61EB0201001C41F59B
:103CA000801300185B412018A2F5001747EB0301B1
:103CB00040EAD570B6196D4111E06D084FEA36063D
:103CC00045EAC0754FEA0752001B61EB0201001C78
:103CD00041F5801149084FEA300000195141324640
:103CE0002B4603B0BDE8F04F00F0F2B90098012276
:103CF00040000023D0EB020263EBE0730098214602
:103D00004FEAE074B8EB000061EB0401E9E783F0EF
:103D100000435BE781F0004158E72DE9FE4F81EA5F
:103D2000030404F0004421F0004100944FF0000B24
:103D300023F0004350EA01045ED052EA03045BD052
:103D4000C3F30A54C1F30A552C44A4F2F33401948A
:103D5000A0FB0254C1F3130141F48011C3F3130318
:103D600043F4801301FB024400FB034E840A970ACC
:103D700044EA815447EA8357A4FB076802958D0AF9
:103D800005FB07854FEA932C04FB0C542705029D85
:103D90004FEA065847EA1637B5EB08056EEB070CF5
:103DA000870E920E47EA811742EA8312A7FB0201AF
:103DB000B6EB0B0164EB00042B0D43EA0C335E18E9
:103DC00044EB1C50DA465146E7FB0201C5F31304ED
:103DD0004FEA0B3343EA14534FEA0432019C43EA9F
:103DE0000603A4F10C040294009CCDE900B400F099
:103DF0007EF903B0BDE8F08F00200146F9E72DE918
:103E0000F04D81EA030404F0004B21F00045144614
:103E10004FF0000A23F0004150EA050220D054EA96
:103E200001021DD0C5F30A570246C5F31303C1F3BF
:103E30001300C1F30A5640F4801543F48013A7EB36
:103E40000608101BD64608F2FD3873EB050002D3B6
:103E500008F1010801E092185B41B8F1000F03DAA4
:103E600000200146BDE8F08D00204FF48011064689
:103E700084460EE0171B73EB050705D3121B63EB9B
:103E8000050306434CEA010C49084FEA300092183A
:103E90005B4150EA0107EDD152EA030012D082EAF9
:103EA000040083EA0501084305D0101BAB4106D28C
:103EB0000122002306E000224FF0004302E06FF0F1
:103EC000010253101AEB06004CEB085110EB0A00EC
:103ED00041EB0B01BDE8F04D00F0FAB80EB5C10F93
:103EE00080EAE0700844CA07002140F233438DE8BD
:103EF0000E000A460B4600F0FAF803B000BD0EB5FE
:103F000040F2334102910021CDE900110A460B46EF
:103F100000F0EDF803B000BD70B5C1F30A5201F036
:103F200000450024C1F3130140F2FF3341F4801136
:103F30009A4201DA002070BD40F233439A42A2F265
:103F4000334203DC524200F05FF800E090402C4323
:103F5000F1D0404270BDC1F30A5210B5C1F3130154
:103F600040F2FF3341F480119A4201DA002010BD83
:103F700040F233439A42A2F2334203DC524200F051
:103F800043F810BD904010BD2DE9F05F05460020BC
:103F900092469B4688460646814640241BE02846BA
:103FA00041464746224600F02FF853465A46C01A6B
:103FB000914110D311461846224600F016F82D1AEA
:103FC00067EB01084F4622460120002100F00DF862
:103FD00017EB00094E41201EA4F10104DFDC484626
:103FE00031462A464346BDE8F09F202A04DB203AAA
:103FF00000FA02F1002070479140C2F1200320FA3C
:1040000003F3194390407047202A04DB203A21FA39
:1040100002F00021704721FA02F3D040C2F12002E1
:104020009140084319467047202A06DBCB17203AF7
:1040300041FA02F043EAE07306E041FA02F3D040AD
:10404000C2F1200291400843194670473A2800D235
:10405000303820F02002412A01D3A2F137008842F3
:1040600001D34FF0FF3070470268114413780160AC
:1040700018467047D160044951610449116200211A
:104080001161114600F09AB869400000B14100008A
:10409000426842B1016811F8013B23B1521EC0E9E8
:1040A0000012184670470121C160881E704742689F
:1040B0005AB1C368016843B983688B4205D0491E71
:1040C000521CC0E90012002070474FF0FF307047CB
:1040D00010B5141E73F1000408DA401C41F1000110
:1040E00092185B411A4301D120F0010010BD2DE967
:1040F000F04D92469B4611B1B1FA81F202E0B0FA5E
:1041000080F220329046FFF770FF04460F4640EAE7
:104110000A0041EA0B0153465A46084313D01146A0
:1041200053EA010019D0C8F140025046FFF76CFF76
:1041300005460E46504659464246FFF756FF08438D
:1041400005D0012004E020463946BDE8F08D00206E
:10415000054346EAE0762C4337430A986305E40AB0
:10416000A0EB08000022FD0A44EA47540A3002D5B9
:1041700000200146E9E7010510196941DDE908451C
:1041800000196941BDE8F04DA2E70000064C074D5B
:1041900006E0E06840F0010394E807009847103417
:1041A000AC42F6D3FCF750F888490000A84900005B
:1041B000C0B24FF4F05100F097B900002DE9F34F71
:1041C0008BB04FF0000801F10C000C464FF0010BD2
:1041D00046460DF1080A0190626901210198904755
:1041E000051E2DD0252D2CD0216A8847C0B16269CB
:1041F000012101989047216A88470028F7D1411E84
:1042000062690198904700E0761CA1690B98884785
:10421000216A88470028F7D1E1690B988847DBE7D6
:10422000A1690B9888470746A84201D1761CD3E7BD
:10423000E1690B9888477F1C02D1B8F1000F6FD05D
:1042400046E1002762693D463946019890472A2891
:1042500004D162690121019890470125DFF8849219
:104260006269012101989047A0F130010A290AD220
:104270004F45E5DC07EB870100EB4107303FDFD41A
:1042800045F01005ECE7E90601D46FF000476C2813
:104290000AD04C2814D0682815D06A280DD074286C
:1042A0001CD07A281AD01DE062690121019890473C
:1042B0006C2802D045F0040514E045F002050DE03D
:1042C00045F020050AE062690121019890476828BD
:1042D00002D045F0080505E045F40065626901215A
:1042E00001989047C4E9015765283DD019DC58284A
:1042F0007AD00CDC452837D004DC252826D041288C
:1043000031D131E046282FD047282CD12CE05B2832
:1043100077D0612828D063287CD0642823D15AE044
:10432000D0E06F2848D008DC66281DD067281BD055
:10433000692821D06E2816D127E0702845D073282F
:1043400068D0752847D078280DD14DE0A1690B9829
:104350008847054625283FF469AFE1690B988847EF
:104360006D1C3FF46AAFB3E023466A466FF001006C
:104370000B99AFF300809EE045F040006060A80715
:1043800023464FF0000236D43EE0E8077FF447AF03
:104390002068011D21600068290501D506701BE712
:1043A000290701D5068017E7A90703D5F117C0E94A
:1043B000006111E706600FE745F040006060A80764
:1043C00023464FF0080216D41EE040F60E0125EAFF
:1043D0000100606016E045F040006060A8072346D9
:1043E0004FF00A0207D40FE045F040006060A807D4
:1043F00008D5234610226FF001000B99AFF300801F
:1044000059E007E0234610226FF001000B99FFF7F7
:1044100037FB50E04FF000094F464B46632802D06F
:104420005B2806D040E0E80601D40120A060012707
:104430003AE062690121019890475E2805D14FF06A
:1044400001096269494601989047216939B90021FB
:104450000A46534643F82120491C0829FADBB0B329
:10446000216969B9C11700EBD16253110AEB8301CD
:1044700022F01F02821A01200B68904003430B6058
:1044800062690121019890475D28E8D1B9F1000FD8
:1044900009D00020514651F82020D24341F8202075
:1044A000401C0828F7DB02AB224600976FF00100A2
:1044B0000B99AFF3008000280CDA401C08D1BBF147
:1044C000000F05D04FF0FF300DB0BDE8F08FFFE7D3
:1044D0004046F9E7E90701D108F1010806444FF029
:1044E000000B79E6CCCCCC0C7F2801D9002208E067
:1044F000064A02EB5002C007127800D1120902F0FE
:104500000F02012090400840704700004849000019
:1045100030B58C1810F8012B12F00F0301D110F8F0
:10452000013B120906D110F8012B03E010F8015BE2
:1045300001F8015B5B1EF9D101E001F8013B521E5D
:10454000FBD1A142E6D3002030BD02E008C8121F13
:1045500008C1002AFAD170477047002001E001C16C
:10456000121F002AFBD17047312E302E312E3131EF
:1045700039380000000000000000000000000000CA
:104580000000000000000000280E000010270000BE
:10459000130E0000F82A0000FD0D0000E02E0000C0
:1045A000E60D0000C8320000CE0D0000B03600005D
:1045B000B50D0000983A00009C0D0000803E000000
:1045C000820D000068420000680D000050460000A7
:1045D0004C0D0000384A0000300D0000204E000055
:1045E000130D000008520000F60C0000F05500000A
:1045F000D70C0000D8590000B80C0000C05D0000C6
:10460000990C0000A8610000780C00009065000083
:10461000570C000078690000360C0000606D000047
:10462000130C000048710000F00B00003075000012
:10463000CD0B000018790000A90B0000007D0000E0
:10464000840B0000E88000005F0B0000D0840000B5
:10465000390B0000B8880000130B0000A08C00008C
:10466000ED0A000088900000C60A00007094000067
:104670009E0A000058980000770A0000409C000045
:104680004F0A000028A00000260A000010A4000025
:10469000FE090000F8A70000D5090000E0AB00000B
:1046A000AC090000C8AF000083090000B0B30000EF
:1046B0005A09000098B700003109000080BB0000D3
:1046C0000809000068BF0000DF08000050C30000B8
:1046D000B508000038C700008A08000020CB0000A1
:1046E0006308000008CF00003A080000F0D2000084
:1046F00012080000D8D60000E9070000C0DA000068
:10470000C1070000A8DE00009907000090E2000049
:104710007107000078E600004A07000060EA000028
:104720002207000048EE0000FC06000030F2000006
:10473000D506000018F60000AF06000000FA0000E1
:104740008A060000E8FD000065060000D0010100B7
:1047500040060000B80501001C060000A009010089
:10476000F9050000880D0100D50500007011010059
:10477000B305000058150100910500004019010023
:104780006F050000281D01004E05000010210100EA
:104790002E050000F82401000E050000E0280100AD
:1047A000EF040000C82C0100D0040000B03001006C
:1047B000B204000098340100950400008038010024
:1047C00078040000683C01005B04000050400100D8
:1047D0004004000038440100240400002048010087
:1047E0000A040000084C0100F0030000F04F010033
:1047F000D6030000D8530100BD030000C0570100DC
:10480000A5030000A85B01008D030000905F01007C
:1048100076030000786301005F0300006067010019
:1048200049030000486B010033030000306F0100B2
:104830001E030000187301000A0300000077010046
:10484000F6020000E87A0100E2020000D07E0100DA
:10485000CF020000B8820100BC020000A086010067
:10486000AA020000888A010098020000708E0100F0
:104870008702000058920100760200004096010075
:1048800066020000289A010056020000109E0100F6
:1048900047020000F8A1010039020000E0A5010074
:1048A00029020000C8A901001A020000B0AD0100F1
:1048B0000C02000098B10100FF01000080B501006A
:1048C000F201000068B90100E501000050BD0100DF
:1048D000D801000038C10100CC01000020C5010052
:1048E000C001000008C90100B5010000F0CC0100C2
:1048F000AA010000D8D001009F010000C0D401002F
:1049000094010000A8D801008A01000090DC010099
:104910008001000078E001007601000060E4010001
:104920006C01000048E801006301000030EC010068
:104930005A01000018F001005101000000F40100CC
:1049400049010000E8F70100DDDDDDDDDCBBBBDD9A
:10495000DDDDDDDDDDDDDDDD98888888888888881F
:10496000777777777788888885555556666666663F
:10497000666666666668888883333332222222221E
:10498000222222222228888DA849000000E003204C
:104990005001000010450000E049000050E10320F4
:1049A000B01400005A4500000539005A6202334035
:1049B0009C335046733075332C014214F33075022A
:1049C0004446F3D2043370170357B80B429633E8CA
:1049D0000333D0078201425B0313FF0F0210010073
:0400000500000241B4
:00000001FF
